{
  "contractName": "SolnSquareVerifier",
  "abi": [
    {
      "anonymous": false,
      "inputs": [
        {
          "indexed": true,
          "internalType": "address",
          "name": "owner",
          "type": "address"
        },
        {
          "indexed": true,
          "internalType": "address",
          "name": "approved",
          "type": "address"
        },
        {
          "indexed": true,
          "internalType": "uint256",
          "name": "tokenId",
          "type": "uint256"
        }
      ],
      "name": "Approval",
      "type": "event"
    },
    {
      "anonymous": false,
      "inputs": [
        {
          "indexed": true,
          "internalType": "address",
          "name": "owner",
          "type": "address"
        },
        {
          "indexed": true,
          "internalType": "address",
          "name": "operator",
          "type": "address"
        },
        {
          "indexed": false,
          "internalType": "bool",
          "name": "approved",
          "type": "bool"
        }
      ],
      "name": "ApprovalForAll",
      "type": "event"
    },
    {
      "anonymous": false,
      "inputs": [
        {
          "indexed": false,
          "internalType": "address",
          "name": "contractOwner",
          "type": "address"
        }
      ],
      "name": "Paused",
      "type": "event"
    },
    {
      "anonymous": false,
      "inputs": [
        {
          "indexed": false,
          "internalType": "uint256",
          "name": "index",
          "type": "uint256"
        },
        {
          "indexed": false,
          "internalType": "address",
          "name": "account",
          "type": "address"
        }
      ],
      "name": "SolutionSubmitted",
      "type": "event"
    },
    {
      "anonymous": false,
      "inputs": [
        {
          "indexed": true,
          "internalType": "address",
          "name": "from",
          "type": "address"
        },
        {
          "indexed": true,
          "internalType": "address",
          "name": "to",
          "type": "address"
        },
        {
          "indexed": true,
          "internalType": "uint256",
          "name": "tokenId",
          "type": "uint256"
        }
      ],
      "name": "Transfer",
      "type": "event"
    },
    {
      "anonymous": false,
      "inputs": [
        {
          "indexed": false,
          "internalType": "address",
          "name": "contractOwner",
          "type": "address"
        }
      ],
      "name": "Unpaused",
      "type": "event"
    },
    {
      "anonymous": false,
      "inputs": [
        {
          "indexed": false,
          "internalType": "address",
          "name": "owner",
          "type": "address"
        }
      ],
      "name": "ownerShip",
      "type": "event"
    },
    {
      "constant": false,
      "inputs": [
        {
          "internalType": "bytes32",
          "name": "_myid",
          "type": "bytes32"
        },
        {
          "internalType": "string",
          "name": "_result",
          "type": "string"
        }
      ],
      "name": "__callback",
      "outputs": [],
      "payable": false,
      "stateMutability": "nonpayable",
      "type": "function"
    },
    {
      "constant": false,
      "inputs": [
        {
          "internalType": "bytes32",
          "name": "_myid",
          "type": "bytes32"
        },
        {
          "internalType": "string",
          "name": "_result",
          "type": "string"
        },
        {
          "internalType": "bytes",
          "name": "_proof",
          "type": "bytes"
        }
      ],
      "name": "__callback",
      "outputs": [],
      "payable": false,
      "stateMutability": "nonpayable",
      "type": "function"
    },
    {
      "constant": false,
      "inputs": [
        {
          "internalType": "address",
          "name": "to",
          "type": "address"
        },
        {
          "internalType": "uint256",
          "name": "tokenId",
          "type": "uint256"
        }
      ],
      "name": "approve",
      "outputs": [],
      "payable": false,
      "stateMutability": "nonpayable",
      "type": "function"
    },
    {
      "constant": true,
      "inputs": [
        {
          "internalType": "address",
          "name": "owner",
          "type": "address"
        }
      ],
      "name": "balanceOf",
      "outputs": [
        {
          "internalType": "uint256",
          "name": "",
          "type": "uint256"
        }
      ],
      "payable": false,
      "stateMutability": "view",
      "type": "function"
    },
    {
      "constant": true,
      "inputs": [
        {
          "internalType": "uint256",
          "name": "tokenId",
          "type": "uint256"
        }
      ],
      "name": "getApproved",
      "outputs": [
        {
          "internalType": "address",
          "name": "",
          "type": "address"
        }
      ],
      "payable": false,
      "stateMutability": "view",
      "type": "function"
    },
    {
      "constant": true,
      "inputs": [],
      "name": "getBaseTokenURI",
      "outputs": [
        {
          "internalType": "string",
          "name": "",
          "type": "string"
        }
      ],
      "payable": false,
      "stateMutability": "view",
      "type": "function"
    },
    {
      "constant": true,
      "inputs": [],
      "name": "getOwner",
      "outputs": [
        {
          "internalType": "address",
          "name": "",
          "type": "address"
        }
      ],
      "payable": false,
      "stateMutability": "view",
      "type": "function"
    },
    {
      "constant": true,
      "inputs": [
        {
          "internalType": "address",
          "name": "owner",
          "type": "address"
        },
        {
          "internalType": "address",
          "name": "operator",
          "type": "address"
        }
      ],
      "name": "isApprovedForAll",
      "outputs": [
        {
          "internalType": "bool",
          "name": "",
          "type": "bool"
        }
      ],
      "payable": false,
      "stateMutability": "view",
      "type": "function"
    },
    {
      "constant": false,
      "inputs": [
        {
          "internalType": "address",
          "name": "to",
          "type": "address"
        },
        {
          "internalType": "uint256",
          "name": "tokenId",
          "type": "uint256"
        }
      ],
      "name": "mint",
      "outputs": [
        {
          "internalType": "bool",
          "name": "",
          "type": "bool"
        }
      ],
      "payable": false,
      "stateMutability": "nonpayable",
      "type": "function"
    },
    {
      "constant": true,
      "inputs": [],
      "name": "name",
      "outputs": [
        {
          "internalType": "string",
          "name": "",
          "type": "string"
        }
      ],
      "payable": false,
      "stateMutability": "view",
      "type": "function"
    },
    {
      "constant": true,
      "inputs": [
        {
          "internalType": "uint256",
          "name": "tokenId",
          "type": "uint256"
        }
      ],
      "name": "ownerOf",
      "outputs": [
        {
          "internalType": "address",
          "name": "",
          "type": "address"
        }
      ],
      "payable": false,
      "stateMutability": "view",
      "type": "function"
    },
    {
      "constant": false,
      "inputs": [],
      "name": "pause",
      "outputs": [],
      "payable": false,
      "stateMutability": "nonpayable",
      "type": "function"
    },
    {
      "constant": false,
      "inputs": [
        {
          "internalType": "address",
          "name": "from",
          "type": "address"
        },
        {
          "internalType": "address",
          "name": "to",
          "type": "address"
        },
        {
          "internalType": "uint256",
          "name": "tokenId",
          "type": "uint256"
        }
      ],
      "name": "safeTransferFrom",
      "outputs": [],
      "payable": false,
      "stateMutability": "nonpayable",
      "type": "function"
    },
    {
      "constant": false,
      "inputs": [
        {
          "internalType": "address",
          "name": "from",
          "type": "address"
        },
        {
          "internalType": "address",
          "name": "to",
          "type": "address"
        },
        {
          "internalType": "uint256",
          "name": "tokenId",
          "type": "uint256"
        },
        {
          "internalType": "bytes",
          "name": "_data",
          "type": "bytes"
        }
      ],
      "name": "safeTransferFrom",
      "outputs": [],
      "payable": false,
      "stateMutability": "nonpayable",
      "type": "function"
    },
    {
      "constant": false,
      "inputs": [
        {
          "internalType": "address",
          "name": "to",
          "type": "address"
        },
        {
          "internalType": "bool",
          "name": "approved",
          "type": "bool"
        }
      ],
      "name": "setApprovalForAll",
      "outputs": [],
      "payable": false,
      "stateMutability": "nonpayable",
      "type": "function"
    },
    {
      "constant": true,
      "inputs": [
        {
          "internalType": "uint256",
          "name": "",
          "type": "uint256"
        }
      ],
      "name": "solutions",
      "outputs": [
        {
          "internalType": "uint256",
          "name": "index",
          "type": "uint256"
        },
        {
          "internalType": "address",
          "name": "account",
          "type": "address"
        },
        {
          "internalType": "bool",
          "name": "isSubmited",
          "type": "bool"
        }
      ],
      "payable": false,
      "stateMutability": "view",
      "type": "function"
    },
    {
      "constant": true,
      "inputs": [
        {
          "internalType": "uint256",
          "name": "",
          "type": "uint256"
        }
      ],
      "name": "submittedSolutions",
      "outputs": [
        {
          "internalType": "uint256",
          "name": "index",
          "type": "uint256"
        },
        {
          "internalType": "address",
          "name": "account",
          "type": "address"
        },
        {
          "internalType": "bool",
          "name": "isSubmited",
          "type": "bool"
        }
      ],
      "payable": false,
      "stateMutability": "view",
      "type": "function"
    },
    {
      "constant": true,
      "inputs": [
        {
          "internalType": "bytes4",
          "name": "interfaceId",
          "type": "bytes4"
        }
      ],
      "name": "supportsInterface",
      "outputs": [
        {
          "internalType": "bool",
          "name": "",
          "type": "bool"
        }
      ],
      "payable": false,
      "stateMutability": "view",
      "type": "function"
    },
    {
      "constant": true,
      "inputs": [],
      "name": "symbol",
      "outputs": [
        {
          "internalType": "string",
          "name": "",
          "type": "string"
        }
      ],
      "payable": false,
      "stateMutability": "view",
      "type": "function"
    },
    {
      "constant": true,
      "inputs": [
        {
          "internalType": "uint256",
          "name": "index",
          "type": "uint256"
        }
      ],
      "name": "tokenByIndex",
      "outputs": [
        {
          "internalType": "uint256",
          "name": "",
          "type": "uint256"
        }
      ],
      "payable": false,
      "stateMutability": "view",
      "type": "function"
    },
    {
      "constant": true,
      "inputs": [
        {
          "internalType": "address",
          "name": "owner",
          "type": "address"
        },
        {
          "internalType": "uint256",
          "name": "index",
          "type": "uint256"
        }
      ],
      "name": "tokenOfOwnerByIndex",
      "outputs": [
        {
          "internalType": "uint256",
          "name": "",
          "type": "uint256"
        }
      ],
      "payable": false,
      "stateMutability": "view",
      "type": "function"
    },
    {
      "constant": true,
      "inputs": [
        {
          "internalType": "uint256",
          "name": "tokenId",
          "type": "uint256"
        }
      ],
      "name": "tokenURI",
      "outputs": [
        {
          "internalType": "string",
          "name": "",
          "type": "string"
        }
      ],
      "payable": false,
      "stateMutability": "view",
      "type": "function"
    },
    {
      "constant": true,
      "inputs": [],
      "name": "totalSupply",
      "outputs": [
        {
          "internalType": "uint256",
          "name": "",
          "type": "uint256"
        }
      ],
      "payable": false,
      "stateMutability": "view",
      "type": "function"
    },
    {
      "constant": false,
      "inputs": [
        {
          "internalType": "address",
          "name": "from",
          "type": "address"
        },
        {
          "internalType": "address",
          "name": "to",
          "type": "address"
        },
        {
          "internalType": "uint256",
          "name": "tokenId",
          "type": "uint256"
        }
      ],
      "name": "transferFrom",
      "outputs": [],
      "payable": false,
      "stateMutability": "nonpayable",
      "type": "function"
    },
    {
      "constant": false,
      "inputs": [
        {
          "internalType": "address",
          "name": "newOwner",
          "type": "address"
        }
      ],
      "name": "transferOwnership",
      "outputs": [],
      "payable": false,
      "stateMutability": "nonpayable",
      "type": "function"
    },
    {
      "constant": true,
      "inputs": [
        {
          "internalType": "uint256[2]",
          "name": "a",
          "type": "uint256[2]"
        },
        {
          "internalType": "uint256[2][2]",
          "name": "b",
          "type": "uint256[2][2]"
        },
        {
          "internalType": "uint256[2]",
          "name": "c",
          "type": "uint256[2]"
        },
        {
          "internalType": "uint256[2]",
          "name": "input",
          "type": "uint256[2]"
        }
      ],
      "name": "verifyTx",
      "outputs": [
        {
          "internalType": "bool",
          "name": "r",
          "type": "bool"
        }
      ],
      "payable": false,
      "stateMutability": "view",
      "type": "function"
    },
    {
      "constant": false,
      "inputs": [
        {
          "internalType": "uint256",
          "name": "index",
          "type": "uint256"
        },
        {
          "internalType": "address",
          "name": "account",
          "type": "address"
        }
      ],
      "name": "add",
      "outputs": [],
      "payable": false,
      "stateMutability": "nonpayable",
      "type": "function"
    },
    {
      "constant": false,
      "inputs": [
        {
          "internalType": "uint256[2]",
          "name": "a",
          "type": "uint256[2]"
        },
        {
          "internalType": "uint256[2][2]",
          "name": "b",
          "type": "uint256[2][2]"
        },
        {
          "internalType": "uint256[2]",
          "name": "c",
          "type": "uint256[2]"
        },
        {
          "internalType": "uint256[2]",
          "name": "input",
          "type": "uint256[2]"
        },
        {
          "internalType": "uint256",
          "name": "index",
          "type": "uint256"
        }
      ],
      "name": "mintSol",
      "outputs": [],
      "payable": false,
      "stateMutability": "nonpayable",
      "type": "function"
    }
  ],
  "bytecode": "0x60806040526040518060400160405280601481526020017f4861766546756e5573696e67536f6c69646974790000000000000000000000008152506040518060400160405280600481526020017f48465553000000000000000000000000000000000000000000000000000000008152506040518060600160405280603f8152602001620046c1603f9139336000806101000a81548173ffffffffffffffffffffffffffffffffffffffff021916908373ffffffffffffffffffffffffffffffffffffffff1602179055507f9e38ac15fb6f429cb4c1d68a79943e344c4ce37b43debdea3555daa570f5361033604051808273ffffffffffffffffffffffffffffffffffffffff1673ffffffffffffffffffffffffffffffffffffffff16815260200191505060405180910390a160008060146101000a81548160ff0219169083151502179055507f5db9ee0a495bf2e6ff9c91a7834c1ba4fdd244a5e8aa4e537bd38aeae4b073aa33604051808273ffffffffffffffffffffffffffffffffffffffff1673ffffffffffffffffffffffffffffffffffffffff16815260200191505060405180910390a1620001c26301ffc9a760e01b6200025e60201b60201c565b620001da6380ac58cd60e01b6200025e60201b60201c565b620001f263780e9d6360e01b6200025e60201b60201c565b82600f90805190602001906200020a929190620002fe565b50816010908051906020019062000223929190620002fe565b5080601190805190602001906200023c929190620002fe565b5062000255635b5e139f60e01b6200025e60201b60201c565b505050620003ad565b63ffffffff60e01b817bffffffffffffffffffffffffffffffffffffffffffffffffffffffff191614156200029257600080fd5b6001806000837bffffffffffffffffffffffffffffffffffffffffffffffffffffffff19167bffffffffffffffffffffffffffffffffffffffffffffffffffffffff1916815260200190815260200160002060006101000a81548160ff02191690831515021790555050565b828054600181600116156101000203166002900490600052602060002090601f016020900481019282601f106200034157805160ff191683800117855562000372565b8280016001018555821562000372579182015b828111156200037157825182559160200191906001019062000354565b5b50905062000381919062000385565b5090565b620003aa91905b80821115620003a65760008160009055506001016200038c565b5090565b90565b61430480620003bd6000396000f3fe608060405234801561001057600080fd5b50600436106101c45760003560e01c8063621e9ec0116100f9578063a22cb46511610097578063bdc32be011610071578063bdc32be014610eb6578063c87b56dd14610f39578063e985e9c514610fe0578063f2fde38b1461105c576101c4565b8063a22cb46514610ce1578063b71698c714610d31578063b88d4fde14610db1576101c4565b80638456cb59116100d35780638456cb5914610b8a57806384b533d714610b94578063893d20e814610c1457806395d89b4114610c5e576101c4565b8063621e9ec01461094b5780636352211e14610ac457806370a0823114610b32576101c4565b80632b8bbbe81161016657806340c10f191161014057806340c10f19146106ca57806342842e0e146107305780634f6ccce71461079e57806358dac4e7146107e0576101c4565b80632b8bbbe8146104be5780632f745c591461050c57806338bbfa501461056e576101c4565b8063095ea7b3116101a2578063095ea7b31461031f57806318160ddd1461036d57806323b872dd1461038b57806327dc297e146103f9576101c4565b806301ffc9a7146101c957806306fdde031461022e578063081812fc146102b1575b600080fd5b610214600480360360208110156101df57600080fd5b8101908080357bffffffffffffffffffffffffffffffffffffffffffffffffffffffff191690602001909291905050506110a0565b604051808215151515815260200191505060405180910390f35b610236611108565b6040518080602001828103825283818151815260200191508051906020019080838360005b8381101561027657808201518184015260208101905061025b565b50505050905090810190601f1680156102a35780820380516001836020036101000a031916815260200191505b509250505060405180910390f35b6102dd600480360360208110156102c757600080fd5b81019080803590602001909291905050506111aa565b604051808273ffffffffffffffffffffffffffffffffffffffff1673ffffffffffffffffffffffffffffffffffffffff16815260200191505060405180910390f35b61036b6004803603604081101561033557600080fd5b81019080803573ffffffffffffffffffffffffffffffffffffffff16906020019092919080359060200190929190505050611262565b005b610375611458565b6040518082815260200191505060405180910390f35b6103f7600480360360608110156103a157600080fd5b81019080803573ffffffffffffffffffffffffffffffffffffffff169060200190929190803573ffffffffffffffffffffffffffffffffffffffff16906020019092919080359060200190929190505050611465565b005b6104bc6004803603604081101561040f57600080fd5b81019080803590602001909291908035906020019064010000000081111561043657600080fd5b82018360208201111561044857600080fd5b8035906020019184600183028401116401000000008311171561046a57600080fd5b91908080601f016020809104026020016040519081016040528093929190818152602001838380828437600081840152601f19601f820116905080830192505050505050509192919290505050611488565b005b61050a600480360360408110156104d457600080fd5b8101908080359060200190929190803573ffffffffffffffffffffffffffffffffffffffff1690602001909291905050506114cb565b005b6105586004803603604081101561052257600080fd5b81019080803573ffffffffffffffffffffffffffffffffffffffff169060200190929190803590602001909291905050506116a3565b6040518082815260200191505060405180910390f35b6106c86004803603606081101561058457600080fd5b8101908080359060200190929190803590602001906401000000008111156105ab57600080fd5b8201836020820111156105bd57600080fd5b803590602001918460018302840111640100000000831117156105df57600080fd5b91908080601f016020809104026020016040519081016040528093929190818152602001838380828437600081840152601f19601f8201169050808301925050505050505091929192908035906020019064010000000081111561064257600080fd5b82018360208201111561065457600080fd5b8035906020019184600183028401116401000000008311171561067657600080fd5b91908080601f016020809104026020016040519081016040528093929190818152602001838380828437600081840152601f19601f820116905080830192505050505050509192919290505050611716565b005b610716600480360360408110156106e057600080fd5b81019080803573ffffffffffffffffffffffffffffffffffffffff1690602001909291908035906020019092919050505061171b565b604051808215151515815260200191505060405180910390f35b61079c6004803603606081101561074657600080fd5b81019080803573ffffffffffffffffffffffffffffffffffffffff169060200190929190803573ffffffffffffffffffffffffffffffffffffffff16906020019092919080359060200190929190505050611793565b005b6107ca600480360360208110156107b457600080fd5b81019080803590602001909291905050506117b3565b6040518082815260200191505060405180910390f35b61094960048036036101608110156107f757600080fd5b8101908080604001906002806020026040519081016040528092919082600260200280828437600081840152601f19601f82011690508083019250505050505091929192908060800190600280602002604051908101604052809291906000905b828210156108ac578382604002016002806020026040519081016040528092919082600260200280828437600081840152601f19601f82011690508083019250505050505081526020019060010190610858565b50505050919291929080604001906002806020026040519081016040528092919082600260200280828437600081840152601f19601f820116905080830192505050505050919291929080604001906002806020026040519081016040528092919082600260200280828437600081840152601f19601f8201169050808301925050505050509192919290803590602001909291905050506117e7565b005b610aaa600480360361014081101561096257600080fd5b8101908080604001906002806020026040519081016040528092919082600260200280828437600081840152601f19601f82011690508083019250505050505091929192908060800190600280602002604051908101604052809291906000905b82821015610a17578382604002016002806020026040519081016040528092919082600260200280828437600081840152601f19601f820116905080830192505050505050815260200190600101906109c3565b50505050919291929080604001906002806020026040519081016040528092919082600260200280828437600081840152601f19601f820116905080830192505050505050919291929080604001906002806020026040519081016040528092919082600260200280828437600081840152601f19601f8201169050808301925050505050509192919290505050611918565b604051808215151515815260200191505060405180910390f35b610af060048036036020811015610ada57600080fd5b8101908080359060200190929190505050611b14565b604051808273ffffffffffffffffffffffffffffffffffffffff1673ffffffffffffffffffffffffffffffffffffffff16815260200191505060405180910390f35b610b7460048036036020811015610b4857600080fd5b81019080803573ffffffffffffffffffffffffffffffffffffffff169060200190929190505050611b51565b6040518082815260200191505060405180910390f35b610b92611ba1565b005b610bc060048036036020811015610baa57600080fd5b8101908080359060200190929190505050611cfd565b604051808481526020018373ffffffffffffffffffffffffffffffffffffffff1673ffffffffffffffffffffffffffffffffffffffff16815260200182151515158152602001935050505060405180910390f35b610c1c611d54565b604051808273ffffffffffffffffffffffffffffffffffffffff1673ffffffffffffffffffffffffffffffffffffffff16815260200191505060405180910390f35b610c66611d7d565b6040518080602001828103825283818151815260200191508051906020019080838360005b83811015610ca6578082015181840152602081019050610c8b565b50505050905090810190601f168015610cd35780820380516001836020036101000a031916815260200191505b509250505060405180910390f35b610d2f60048036036040811015610cf757600080fd5b81019080803573ffffffffffffffffffffffffffffffffffffffff169060200190929190803515159060200190929190505050611e1f565b005b610d5d60048036036020811015610d4757600080fd5b8101908080359060200190929190505050611f59565b604051808481526020018373ffffffffffffffffffffffffffffffffffffffff1673ffffffffffffffffffffffffffffffffffffffff16815260200182151515158152602001935050505060405180910390f35b610eb460048036036080811015610dc757600080fd5b81019080803573ffffffffffffffffffffffffffffffffffffffff169060200190929190803573ffffffffffffffffffffffffffffffffffffffff1690602001909291908035906020019092919080359060200190640100000000811115610e2e57600080fd5b820183602082011115610e4057600080fd5b80359060200191846001830284011164010000000083111715610e6257600080fd5b91908080601f016020809104026020016040519081016040528093929190818152602001838380828437600081840152601f19601f820116905080830192505050505050509192919290505050611fbd565b005b610ebe611fe3565b6040518080602001828103825283818151815260200191508051906020019080838360005b83811015610efe578082015181840152602081019050610ee3565b50505050905090810190601f168015610f2b5780820380516001836020036101000a031916815260200191505b509250505060405180910390f35b610f6560048036036020811015610f4f57600080fd5b8101908080359060200190929190505050612085565b6040518080602001828103825283818151815260200191508051906020019080838360005b83811015610fa5578082015181840152602081019050610f8a565b50505050905090810190601f168015610fd25780820380516001836020036101000a031916815260200191505b509250505060405180910390f35b61104260048036036040811015610ff657600080fd5b81019080803573ffffffffffffffffffffffffffffffffffffffff169060200190929190803573ffffffffffffffffffffffffffffffffffffffff16906020019092919050505061214c565b604051808215151515815260200191505060405180910390f35b61109e6004803603602081101561107257600080fd5b81019080803573ffffffffffffffffffffffffffffffffffffffff1690602001909291905050506121e0565b005b600060016000837bffffffffffffffffffffffffffffffffffffffffffffffffffffffff19167bffffffffffffffffffffffffffffffffffffffffffffffffffffffff1916815260200190815260200160002060009054906101000a900460ff169050919050565b6060600f8054600181600116156101000203166002900480601f0160208091040260200160405190810160405280929190818152602001828054600181600116156101000203166002900480156111a05780601f10611175576101008083540402835291602001916111a0565b820191906000526020600020905b81548152906001019060200180831161118357829003601f168201915b5050505050905090565b60006111b58261227c565b611227576040517f08c379a00000000000000000000000000000000000000000000000000000000081526004018080602001828103825260148152602001807f546f6b656e20646f6573206e6f7420657869737400000000000000000000000081525060200191505060405180910390fd5b6003600083815260200190815260200160002060009054906101000a900473ffffffffffffffffffffffffffffffffffffffff169050919050565b600061126d82611b14565b90508073ffffffffffffffffffffffffffffffffffffffff168373ffffffffffffffffffffffffffffffffffffffff1614156112f4576040517f08c379a00000000000000000000000000000000000000000000000000000000081526004018080602001828103825260238152602001806142ad6023913960400191505060405180910390fd5b8073ffffffffffffffffffffffffffffffffffffffff163373ffffffffffffffffffffffffffffffffffffffff1614806113345750611333813361214c565b5b6113a6576040517f08c379a000000000000000000000000000000000000000000000000000000000815260040180806020018281038252600c8152602001807f556e617574686f72697a6564000000000000000000000000000000000000000081525060200191505060405180910390fd5b826003600084815260200190815260200160002060006101000a81548173ffffffffffffffffffffffffffffffffffffffff021916908373ffffffffffffffffffffffffffffffffffffffff160217905550818373ffffffffffffffffffffffffffffffffffffffff168273ffffffffffffffffffffffffffffffffffffffff167f8c5be1e5ebec7d5bd14f71427d1e84f3dd0314c0f7b2291e5b200ac8c7c3b92560405160405180910390a4505050565b6000600880549050905090565b61146f33826122ee565b61147857600080fd5b611483838383612383565b505050565b6114c7828260006040519080825280601f01601f1916602001820160405280156114c15781602001600182028038833980820191505090505b50611716565b5050565b6114d3614046565b60405180606001604052808481526020018373ffffffffffffffffffffffffffffffffffffffff16815260200160011515815250905080601460008581526020019081526020016000206000820151816000015560208201518160010160006101000a81548173ffffffffffffffffffffffffffffffffffffffff021916908373ffffffffffffffffffffffffffffffffffffffff16021790555060408201518160010160146101000a81548160ff021916908315150217905550905050601381908060018154018082558091505090600182039060005260206000209060020201600090919290919091506000820151816000015560208201518160010160006101000a81548173ffffffffffffffffffffffffffffffffffffffff021916908373ffffffffffffffffffffffffffffffffffffffff16021790555060408201518160010160146101000a81548160ff0219169083151502179055505050507f329e271c3661a59f0033b686a9a95b6691445bf3b5707e10995a485a6fafd68e8383604051808381526020018273ffffffffffffffffffffffffffffffffffffffff1673ffffffffffffffffffffffffffffffffffffffff1681526020019250505060405180910390a1505050565b60006116ae83611b51565b82106116b957600080fd5b600660008473ffffffffffffffffffffffffffffffffffffffff1673ffffffffffffffffffffffffffffffffffffffff168152602001908152602001600020828154811061170357fe5b9060005260206000200154905092915050565b505050565b60008060009054906101000a900473ffffffffffffffffffffffffffffffffffffffff1673ffffffffffffffffffffffffffffffffffffffff163373ffffffffffffffffffffffffffffffffffffffff161461177657600080fd5b61178083836123a7565b611789826123c8565b6001905092915050565b6117ae83838360405180602001604052806000815250611fbd565b505050565b60006117bd611458565b82106117c857600080fd5b600882815481106117d557fe5b90600052602060002001549050919050565b6117f385858585611918565b611865576040517f08c379a00000000000000000000000000000000000000000000000000000000081526004018080602001828103825260108152602001807f496e76616c696420736f6c7574696f6e0000000000000000000000000000000081525060200191505060405180910390fd5b6014600082815260200190815260200160002060010160149054906101000a900460ff16156118fc576040517f08c379a00000000000000000000000000000000000000000000000000000000081526004018080602001828103825260118152602001807f416c7265616479207375626d697474656400000000000000000000000000000081525060200191505060405180910390fd5b61190681336114cb565b611910338261171b565b505050505050565b600061192261407f565b60405180604001604052808760006002811061193a57fe5b602002015181526020018760016002811061195157fe5b60200201518152508160000181905250604051806040016040528060405180604001604052808860006002811061198457fe5b602002015160006002811061199557fe5b60200201518152602001886000600281106119ac57fe5b60200201516001600281106119bd57fe5b602002015181525081526020016040518060400160405280886001600281106119e257fe5b60200201516000600281106119f357fe5b6020020151815260200188600160028110611a0a57fe5b6020020151600160028110611a1b57fe5b60200201518152508152508160200181905250604051806040016040528085600060028110611a4657fe5b6020020151815260200185600160028110611a5d57fe5b6020020151815250816040018190525060606002604051908082528060200260200182016040528015611a9f5781602001602082028038833980820191505090505b50905060008090505b6002811015611ae757848160028110611abd57fe5b6020020151828281518110611ace57fe5b6020026020010181815250508080600101915050611aa8565b506000611af4828461251f565b1415611b0557600192505050611b0c565b6000925050505b949350505050565b60006002600083815260200190815260200160002060009054906101000a900473ffffffffffffffffffffffffffffffffffffffff169050919050565b6000611b9a600460008473ffffffffffffffffffffffffffffffffffffffff1673ffffffffffffffffffffffffffffffffffffffff168152602001908152602001600020612691565b9050919050565b6000809054906101000a900473ffffffffffffffffffffffffffffffffffffffff1673ffffffffffffffffffffffffffffffffffffffff163373ffffffffffffffffffffffffffffffffffffffff1614611bfa57600080fd5b600060149054906101000a900460ff1615611c7d576040517f08c379a00000000000000000000000000000000000000000000000000000000081526004018080602001828103825260178152602001807f436f6e747261637420737461746520756e70617573656400000000000000000081525060200191505060405180910390fd5b6001600060146101000a81548160ff0219169083151502179055507f62e78cea01bee320cd4e420270b5ea74000d11b0c9f74754ebdbfc544b05a25833604051808273ffffffffffffffffffffffffffffffffffffffff1673ffffffffffffffffffffffffffffffffffffffff16815260200191505060405180910390a1565b60146020528060005260406000206000915090508060000154908060010160009054906101000a900473ffffffffffffffffffffffffffffffffffffffff16908060010160149054906101000a900460ff16905083565b60008060009054906101000a900473ffffffffffffffffffffffffffffffffffffffff16905090565b606060108054600181600116156101000203166002900480601f016020809104026020016040519081016040528092919081815260200182805460018160011615610100020316600290048015611e155780601f10611dea57610100808354040283529160200191611e15565b820191906000526020600020905b815481529060010190602001808311611df857829003601f168201915b5050505050905090565b3373ffffffffffffffffffffffffffffffffffffffff168273ffffffffffffffffffffffffffffffffffffffff161415611e5857600080fd5b80600560003373ffffffffffffffffffffffffffffffffffffffff1673ffffffffffffffffffffffffffffffffffffffff16815260200190815260200160002060008473ffffffffffffffffffffffffffffffffffffffff1673ffffffffffffffffffffffffffffffffffffffff16815260200190815260200160002060006101000a81548160ff0219169083151502179055508173ffffffffffffffffffffffffffffffffffffffff163373ffffffffffffffffffffffffffffffffffffffff167f17307eab39ab6107e8899845ad3d59bd9653f200f220920489ca2b5937696c3183604051808215151515815260200191505060405180910390a35050565b60138181548110611f6657fe5b90600052602060002090600202016000915090508060000154908060010160009054906101000a900473ffffffffffffffffffffffffffffffffffffffff16908060010160149054906101000a900460ff16905083565b611fc8848484611465565b611fd48484848461269f565b611fdd57600080fd5b50505050565b606060118054600181600116156101000203166002900480601f01602080910402602001604051908101604052809291908181526020018280546001816001161561010002031660029004801561207b5780601f106120505761010080835404028352916020019161207b565b820191906000526020600020905b81548152906001019060200180831161205e57829003601f168201915b5050505050905090565b60606120908261227c565b61209957600080fd5b601260008381526020019081526020016000208054600181600116156101000203166002900480601f0160208091040260200160405190810160405280929190818152602001828054600181600116156101000203166002900480156121405780601f1061211557610100808354040283529160200191612140565b820191906000526020600020905b81548152906001019060200180831161212357829003601f168201915b50505050509050919050565b6000600560008473ffffffffffffffffffffffffffffffffffffffff1673ffffffffffffffffffffffffffffffffffffffff16815260200190815260200160002060008373ffffffffffffffffffffffffffffffffffffffff1673ffffffffffffffffffffffffffffffffffffffff16815260200190815260200160002060009054906101000a900460ff16905092915050565b6000809054906101000a900473ffffffffffffffffffffffffffffffffffffffff1673ffffffffffffffffffffffffffffffffffffffff163373ffffffffffffffffffffffffffffffffffffffff161461223957600080fd5b806000806101000a81548173ffffffffffffffffffffffffffffffffffffffff021916908373ffffffffffffffffffffffffffffffffffffffff16021790555050565b6000806002600084815260200190815260200160002060009054906101000a900473ffffffffffffffffffffffffffffffffffffffff169050600073ffffffffffffffffffffffffffffffffffffffff168173ffffffffffffffffffffffffffffffffffffffff161415915050919050565b6000806122fa83611b14565b90508073ffffffffffffffffffffffffffffffffffffffff168473ffffffffffffffffffffffffffffffffffffffff16148061236957508373ffffffffffffffffffffffffffffffffffffffff16612351846111aa565b73ffffffffffffffffffffffffffffffffffffffff16145b8061237a5750612379818561214c565b5b91505092915050565b61238e838383612888565b6123988382612b1d565b6123a28282612cbb565b505050565b6123b18282612d82565b6123bb8282612cbb565b6123c481612f99565b5050565b6123d18161227c565b612443576040517f08c379a00000000000000000000000000000000000000000000000000000000081526004018080602001828103825260148152602001807f546f6b656e20646f6573206e6f7420657869737400000000000000000000000081525060200191505060405180910390fd5b606061244e82612fe5565b90506124f460118054600181600116156101000203166002900480601f0160208091040260200160405190810160405280929190818152602001828054600181600116156101000203166002900480156124e95780601f106124be576101008083540402835291602001916124e9565b820191906000526020600020905b8154815290600101906020018083116124cc57829003601f168201915b505050505082613112565b60126000848152602001908152602001600020908051906020019061251a9291906140b2565b505050565b6000807f30644e72e131a029b85045b68181585d2833e84879b9709143e1f593f0000001905061254d614132565b612555613156565b905080608001515160018651011461256c57600080fd5b612574614179565b6040518060400160405280600081526020016000815250905060008090505b865181101561260a57838782815181106125a957fe5b6020026020010151106125bb57600080fd5b6125fb826125f6856080015160018501815181106125d557fe5b60200260200101518a85815181106125e957fe5b60200260200101516135a4565b613636565b91508080600101915050612593565b5061262d81836080015160008151811061262057fe5b6020026020010151613636565b905061267385600001518660200151612645846136e7565b85604001516126578a604001516136e7565b876060015161266989600001516136e7565b8960200151613781565b612683576001935050505061268b565b600093505050505b92915050565b600081600001549050919050565b60006126c08473ffffffffffffffffffffffffffffffffffffffff166138e5565b6126cd5760019050612880565b60008473ffffffffffffffffffffffffffffffffffffffff1663150b7a02338887876040518563ffffffff1660e01b8152600401808573ffffffffffffffffffffffffffffffffffffffff1673ffffffffffffffffffffffffffffffffffffffff1681526020018473ffffffffffffffffffffffffffffffffffffffff1673ffffffffffffffffffffffffffffffffffffffff16815260200183815260200180602001828103825283818151815260200191508051906020019080838360005b838110156127a857808201518184015260208101905061278d565b50505050905090810190601f1680156127d55780820380516001836020036101000a031916815260200191505b5095505050505050602060405180830381600087803b1580156127f757600080fd5b505af115801561280b573d6000803e3d6000fd5b505050506040513d602081101561282157600080fd5b8101908080519060200190929190505050905063150b7a0260e01b7bffffffffffffffffffffffffffffffffffffffffffffffffffffffff1916817bffffffffffffffffffffffffffffffffffffffffffffffffffffffff1916149150505b949350505050565b8273ffffffffffffffffffffffffffffffffffffffff166128a882611b14565b73ffffffffffffffffffffffffffffffffffffffff1614612931576040517f08c379a00000000000000000000000000000000000000000000000000000000081526004018080602001828103825260168152602001807f596f752061726520746f6b656e20616e206f776e65720000000000000000000081525060200191505060405180910390fd5b600073ffffffffffffffffffffffffffffffffffffffff168273ffffffffffffffffffffffffffffffffffffffff1614156129d4576040517f08c379a000000000000000000000000000000000000000000000000000000000815260040180806020018281038252600f8152602001807f496e76616c69642061646472657373000000000000000000000000000000000081525060200191505060405180910390fd5b6129dd81613930565b612a24600460008573ffffffffffffffffffffffffffffffffffffffff1673ffffffffffffffffffffffffffffffffffffffff1681526020019081526020016000206139ee565b612a6b600460008473ffffffffffffffffffffffffffffffffffffffff1673ffffffffffffffffffffffffffffffffffffffff168152602001908152602001600020613a11565b816002600083815260200190815260200160002060006101000a81548173ffffffffffffffffffffffffffffffffffffffff021916908373ffffffffffffffffffffffffffffffffffffffff160217905550808273ffffffffffffffffffffffffffffffffffffffff168473ffffffffffffffffffffffffffffffffffffffff167fddf252ad1be2c89b69c2b068fc378daa952ba7f163c4a11628f55a4df523b3ef60405160405180910390a4505050565b6000612b756001600660008673ffffffffffffffffffffffffffffffffffffffff1673ffffffffffffffffffffffffffffffffffffffff16815260200190815260200160002080549050613a2790919063ffffffff16565b9050600060076000848152602001908152602001600020549050818114612c62576000600660008673ffffffffffffffffffffffffffffffffffffffff1673ffffffffffffffffffffffffffffffffffffffff1681526020019081526020016000208381548110612be257fe5b9060005260206000200154905080600660008773ffffffffffffffffffffffffffffffffffffffff1673ffffffffffffffffffffffffffffffffffffffff1681526020019081526020016000208381548110612c3a57fe5b9060005260206000200181905550816007600083815260200190815260200160002081905550505b600660008573ffffffffffffffffffffffffffffffffffffffff1673ffffffffffffffffffffffffffffffffffffffff168152602001908152602001600020805480919060019003612cb49190614193565b5050505050565b600660008373ffffffffffffffffffffffffffffffffffffffff1673ffffffffffffffffffffffffffffffffffffffff168152602001908152602001600020805490506007600083815260200190815260200160002081905550600660008373ffffffffffffffffffffffffffffffffffffffff1673ffffffffffffffffffffffffffffffffffffffff1681526020019081526020016000208190806001815401808255809150509060018203906000526020600020016000909192909190915055505050565b600073ffffffffffffffffffffffffffffffffffffffff168273ffffffffffffffffffffffffffffffffffffffff161415612e25576040517f08c379a000000000000000000000000000000000000000000000000000000000815260040180806020018281038252600f8152602001807f496e76616c69642061646472657373000000000000000000000000000000000081525060200191505060405180910390fd5b612e2e8161227c565b15612ea1576040517f08c379a00000000000000000000000000000000000000000000000000000000081526004018080602001828103825260138152602001807f546f6b656e20616c72656164792065786973740000000000000000000000000081525060200191505060405180910390fd5b816002600083815260200190815260200160002060006101000a81548173ffffffffffffffffffffffffffffffffffffffff021916908373ffffffffffffffffffffffffffffffffffffffff160217905550612f3a600460008473ffffffffffffffffffffffffffffffffffffffff1673ffffffffffffffffffffffffffffffffffffffff168152602001908152602001600020613a11565b808273ffffffffffffffffffffffffffffffffffffffff163373ffffffffffffffffffffffffffffffffffffffff167fddf252ad1be2c89b69c2b068fc378daa952ba7f163c4a11628f55a4df523b3ef60405160405180910390a45050565b6008805490506009600083815260200190815260200160002081905550600881908060018154018082558091505090600182039060005260206000200160009091929091909150555050565b6060600082141561302d576040518060400160405280600181526020017f3000000000000000000000000000000000000000000000000000000000000000815250905061310d565b600082905060005b60008214613057578080600101915050600a828161304f57fe5b049150613035565b6060816040519080825280601f01601f19166020018201604052801561308c5781602001600182028038833980820191505090505b50905060006001830390505b6000861461310557600a86816130aa57fe5b0660300160f81b828280600190039350815181106130c457fe5b60200101907effffffffffffffffffffffffffffffffffffffffffffffffffffffffffffff1916908160001a905350600a86816130fd57fe5b049550613098565b819450505050505b919050565b606061314e8383604051806020016040528060008152506040518060200160405280600081525060405180602001604052806000815250613a71565b905092915050565b61315e614132565b60405180604001604052807f2de773ab0474a36e74843dd48498676644053ca474f6cdaf3913d0734f0701f781526020017f0ab60519186ce941d270ab6026801b94f4a1820783a81f9a9a23359b166819118152508160000181905250604051806040016040528060405180604001604052807f1d724f17e37d154ad2cf6810ff68215eb33314993aeb7dc9b666337a6d24ee7981526020017f2dc886e3123a7303094fb251134b4720b9dc1c88c62dabcca48406089ea417ea815250815260200160405180604001604052807f2f359f17d38244c337a0d87c782b6fd352c527ab61a8b5ed6e163a05c02c8ae981526020017f23b06ed6bbb36c7f1ad41c119e6e8efc660229f4c3900765c88c306f56e7f7be8152508152508160200181905250604051806040016040528060405180604001604052807f2e090493792f139abc13264f8f023313c5b2dbc5e1baccb7ae677e974e6fbc2681526020017f14f481034e31b6d1af13acfaaaa0f515d35746f1098170a9633b957294fccf4a815250815260200160405180604001604052807f08f7aec3fd6fc5d5e852743078b3a999bd7b31216bba97066720768ef8ea4b5b81526020017f0b69f7c81741bd0ac5aaa0eeb7498f2ca86692971c5b83a8d54768ae5993ab7c8152508152508160400181905250604051806040016040528060405180604001604052807f0b9d44b082ef50952456830db86adba8fa023b785155154a6d5a916c7046a22481526020017f2073946d0bc341fc58b730de1184f1013c1dbbe8cfe1622027be0758c60bf5fe815250815260200160405180604001604052807f12da4a5e9fca3a3545ba57cb1caee98c553a30b502240b4c4de34350dacddcb281526020017f2c136493ddf06151524735f77a66a09cb9e632787e64c45a089163df83d00eeb8152508152508160600181905250600360405190808252806020026020018201604052801561344557816020015b6134326141bf565b81526020019060019003908161342a5790505b50816080018190525060405180604001604052807f20bda63768f8506a84806821893c964107903a24738b7bbef4eb184d7b78274d81526020017f02f92d9fc80c5d309b630c3190fab56cda6c5077eccebcc690f0a51dc418527981525081608001516000815181106134b457fe5b602002602001018190525060405180604001604052807f18f0702035258a916f66d5629e1339c9f7222c3f4caf9841f9a5140a5c0a280181526020017f2a687c2de601030e2f0c12bdd1687b41dd1e186371d138591ade1a42347f7434815250816080015160018151811061352557fe5b602002602001018190525060405180604001604052807f1b43bf991ae311c1168cafd719bb0cdd562e474282a1151fdee947eccf6e1c4681526020017f0defdb0e720e5f5f2cdb1e31e4b500fd47e42aeac68c137b0db4a58845f81fed815250816080015160028151811061359657fe5b602002602001018190525090565b6135ac614179565b6135b46141d9565b8360000151816000600381106135c657fe5b6020020181815250508360200151816001600381106135e157fe5b60200201818152505082816002600381106135f857fe5b602002018181525050600060608360808460076107d05a03fa9050806000811461362157613623565bfe5b508061362e57600080fd5b505092915050565b61363e614179565b6136466141fb565b83600001518160006004811061365857fe5b60200201818152505083602001518160016004811061367357fe5b60200201818152505082600001518160026004811061368e57fe5b6020020181815250508260200151816003600481106136a957fe5b602002018181525050600060608360c08460066107d05a03fa905080600081146136d2576136d4565bfe5b50806136df57600080fd5b505092915050565b6136ef614179565b60007f30644e72e131a029b85045b68181585d97816a916871ca8d3c208c16d87cfd4790506000836000015114801561372c575060008360200151145b1561375057604051806040016040528060008152602001600081525091505061377c565b6040518060400160405280846000015181526020018285602001518161377257fe5b0683038152509150505b919050565b6000606060046040519080825280602002602001820160405280156137c057816020015b6137ad6141bf565b8152602001906001900390816137a55790505b5090506060600460405190808252806020026020018201604052801561380057816020015b6137ed61421d565b8152602001906001900390816137e55790505b5090508a8260008151811061381157fe5b6020026020010181905250888260018151811061382a57fe5b6020026020010181905250868260028151811061384357fe5b6020026020010181905250848260038151811061385c57fe5b6020026020010181905250898160008151811061387557fe5b6020026020010181905250878160018151811061388e57fe5b602002602001018190525085816002815181106138a757fe5b602002602001018190525083816003815181106138c057fe5b60200260200101819052506138d58282613d33565b9250505098975050505050505050565b60008060007fc5d2460186f7233c927e7db2dcc703c0e500b653ca82273b7bfad8045d85a47060001b9050833f915080821415801561392757506000801b8214155b92505050919050565b600073ffffffffffffffffffffffffffffffffffffffff166003600083815260200190815260200160002060009054906101000a900473ffffffffffffffffffffffffffffffffffffffff1673ffffffffffffffffffffffffffffffffffffffff16146139eb5760006003600083815260200190815260200160002060006101000a81548173ffffffffffffffffffffffffffffffffffffffff021916908373ffffffffffffffffffffffffffffffffffffffff1602179055505b50565b613a0660018260000154613a2790919063ffffffff16565b816000018190555050565b6001816000016000828254019250508190555050565b6000613a6983836040518060400160405280601e81526020017f536166654d6174683a207375627472616374696f6e206f766572666c6f770000815250613f86565b905092915050565b6060808690506060869050606086905060608690506060869050606081518351855187518951010101016040519080825280601f01601f191660200182016040528015613acd5781602001600182028038833980820191505090505b509050606081905060008090506000809050600090505b8851811015613b5257888181518110613af957fe5b602001015160f81c60f81b838380600101945081518110613b1657fe5b60200101907effffffffffffffffffffffffffffffffffffffffffffffffffffffffffffff1916908160001a9053508080600101915050613ae4565b600090505b8751811015613bc557878181518110613b6c57fe5b602001015160f81c60f81b838380600101945081518110613b8957fe5b60200101907effffffffffffffffffffffffffffffffffffffffffffffffffffffffffffff1916908160001a9053508080600101915050613b57565b600090505b8651811015613c3857868181518110613bdf57fe5b602001015160f81c60f81b838380600101945081518110613bfc57fe5b60200101907effffffffffffffffffffffffffffffffffffffffffffffffffffffffffffff1916908160001a9053508080600101915050613bca565b600090505b8551811015613cab57858181518110613c5257fe5b602001015160f81c60f81b838380600101945081518110613c6f57fe5b60200101907effffffffffffffffffffffffffffffffffffffffffffffffffffffffffffff1916908160001a9053508080600101915050613c3d565b600090505b8451811015613d1e57848181518110613cc557fe5b602001015160f81c60f81b838380600101945081518110613ce257fe5b60200101907effffffffffffffffffffffffffffffffffffffffffffffffffffffffffffff1916908160001a9053508080600101915050613cb0565b82995050505050505050505095945050505050565b60008151835114613d4357600080fd5b6000835190506000600682029050606081604051908082528060200260200182016040528015613d825781602001602082028038833980820191505090505b50905060008090505b83811015613f2857868181518110613d9f57fe5b602002602001015160000151826000600684020181518110613dbd57fe5b602002602001018181525050868181518110613dd557fe5b602002602001015160200151826001600684020181518110613df357fe5b602002602001018181525050858181518110613e0b57fe5b602002602001015160000151600160028110613e2357fe5b6020020151826002600684020181518110613e3a57fe5b602002602001018181525050858181518110613e5257fe5b602002602001015160000151600060028110613e6a57fe5b6020020151826003600684020181518110613e8157fe5b602002602001018181525050858181518110613e9957fe5b602002602001015160200151600160028110613eb157fe5b6020020151826004600684020181518110613ec857fe5b602002602001018181525050858181518110613ee057fe5b602002602001015160200151600060028110613ef857fe5b6020020151826005600684020181518110613f0f57fe5b6020026020010181815250508080600101915050613d8b565b50613f31614243565b6000602082602086026020860160086107d05a03fa90508060008114613f5657613f58565bfe5b5080613f6357600080fd5b600082600060018110613f7257fe5b602002015114159550505050505092915050565b6000838311158290614033576040517f08c379a00000000000000000000000000000000000000000000000000000000081526004018080602001828103825283818151815260200191508051906020019080838360005b83811015613ff8578082015181840152602081019050613fdd565b50505050905090810190601f1680156140255780820380516001836020036101000a031916815260200191505b509250505060405180910390fd5b5060008385039050809150509392505050565b604051806060016040528060008152602001600073ffffffffffffffffffffffffffffffffffffffff1681526020016000151581525090565b60405180606001604052806140926141bf565b815260200161409f61421d565b81526020016140ac6141bf565b81525090565b828054600181600116156101000203166002900490600052602060002090601f016020900481019282601f106140f357805160ff1916838001178555614121565b82800160010185558215614121579182015b82811115614120578251825591602001919060010190614105565b5b50905061412e9190614265565b5090565b6040518060a001604052806141456141bf565b815260200161415261421d565b815260200161415f61421d565b815260200161416c61421d565b8152602001606081525090565b604051806040016040528060008152602001600081525090565b8154818355818111156141ba578183600052602060002091820191016141b99190614265565b5b505050565b604051806040016040528060008152602001600081525090565b6040518060600160405280600390602082028038833980820191505090505090565b6040518060800160405280600490602082028038833980820191505090505090565b604051806040016040528061423061428a565b815260200161423d61428a565b81525090565b6040518060200160405280600190602082028038833980820191505090505090565b61428791905b8082111561428357600081600090555060010161426b565b5090565b90565b604051806040016040528060029060208202803883398082019150509050509056fe416464726573732063616e2774206265206f776e6572206f662074686520746f6b656ea265627a7a72315820d11e425d94752fef05b92984774a92e0321f06ef024ef00efc70c2076a28eebb64736f6c6343000510003268747470733a2f2f73332d75732d776573742d322e616d617a6f6e6177732e636f6d2f756461636974792d626c6f636b636861696e2f63617073746f6e652f",
  "source": "pragma solidity ^0.5.0;\n\n// TODO define a contract call to the zokrates generated solidity contract <Verifier> or <renamedVerifier>\nimport './Verifier.sol';\nimport './ERC721Mintable.sol';\n\n// TODO define another contract named SolnSquareVerifier that inherits from your ERC721Mintable class\ncontract SolnSquareVerifier is CustomERC721Token, Verifier {\n    // TODO define a solutions struct that can hold an index & an address\n    struct Solution {\n        uint256 index;\n        address account;\n        bool isSubmited;\n    }\n\n    // TODO define an array of the above struct\n    Solution[] public solutions;\n\n    // TODO define a mapping to store unique solutions submitted\n    mapping(uint256 => Solution) public submittedSolutions;\n\n    // TODO Create an event to emit when a solution is added\n    event SolutionSubmitted(uint256 index, address account);\n\n    // TODO Create a function to add the solutions to the array and emit the event\n    function add(uint256 index, address account) public {\n        // create new soultion\n        Solution memory addNewSol = Solution({\n            index: index,\n            account: account,\n            isSubmited: true\n        });\n\n        submittedSolutions[index] = addNewSol;\n\n        // push to submitted soultions\n        solutions.push(addNewSol);\n\n        emit SolutionSubmitted(index, account);\n    }\n\n    // TODO Create a function to mint new NFT only after the solution has been verified\n    //  - make sure the solution is unique (has not been used before)\n    //  - make sure you handle metadata as well as tokenSuplly\n\n    function mintSol(\n        uint256[2] memory a,\n        uint256[2][2] memory b,\n        uint256[2] memory c,\n        uint256[2] memory input,\n        uint256 index\n    ) public {\n        require(verifyTx(a, b, c, input), \"Invalid solution\");\n        require(!submittedSolutions[index].isSubmited, \"Already submitted\");\n        add(index, msg.sender);\n        super.mint(msg.sender, index);\n    }\n}\n",
  "sourcePath": "/Users/bberta/playground/nanodegree_programe/Etherum/Capstone/Blockchain-Capstone/eth-contracts/contracts/SolnSquareVerifier.sol",
  "compiler": {
    "name": "solc",
    "version": "0.5.16+commit.9c3226ce.Emscripten.clang"
  },
  "schemaVersion": "3.3.4",
  "updatedAt": "2021-08-05T09:19:38.374Z",
  "networkType": "ethereum",
  "devdoc": {
    "methods": {
      "isApprovedForAll(address,address)": {
        "details": "Tells whether an operator is approved by a given owner",
        "params": {
          "operator": "operator address which you want to query the approval of",
          "owner": "owner address which you want to query the approval of"
        },
        "return": "bool whether the given operator is approved by the given owner"
      },
      "setApprovalForAll(address,bool)": {
        "details": "Sets or unsets the approval of a given operator An operator is allowed to transfer all tokens of the sender on their behalf",
        "params": {
          "approved": "representing the status of the approval to be set",
          "to": "operator address to set the approval"
        }
      },
      "supportsInterface(bytes4)": {
        "details": "implement supportsInterface(bytes4) using a lookup table"
      },
      "tokenByIndex(uint256)": {
        "details": "Gets the token ID at a given index of all the tokens in this contract Reverts if the index is greater or equal to the total number of tokens",
        "params": {
          "index": "uint256 representing the index to be accessed of the tokens list"
        },
        "return": "uint256 token ID at the given index of the tokens list"
      },
      "tokenOfOwnerByIndex(address,uint256)": {
        "details": "Gets the token ID at a given index of the tokens list of the requested owner",
        "params": {
          "index": "uint256 representing the index to be accessed of the requested tokens list",
          "owner": "address owning the tokens list to be accessed"
        },
        "return": "uint256 token ID at the given index of the tokens list owned by the requested address"
      },
      "totalSupply()": {
        "details": "Gets the total amount of tokens stored by the contract",
        "return": "uint256 representing the total amount of tokens"
      }
    }
  },
  "userdoc": {
    "methods": {}
  }
}